:0400000051EF00F0CC
:10000800FACF01F0FBCF02F0E9CF03F037ED17F09C
:10001800D8CF0FF0E8CF10F0E0CF11F0FACF12F000
:10002800FBCF13F0E9CF14F0EACF15F0E1CF16F0CB
:10003800E2CF17F0D9CF18F0DACF19F0F3CF1AF0D2
:10004800F4CF1BF0F6CF1CF0F7CF1DF0F8CF1EF061
:10005800F5CF1FF01FC0F5FF1EC0F8FF1DC0F7FF4A
:100068001CC0F6FF1BC0F4FF1AC0F3FF19C0DAFF6B
:1000780018C0D9FF17C0E2FF16C0E1FF15C0EAFF9C
:1000880014C0E9FF13C0FBFF12C0FAFF11C0E0FF64
:0E00980010C0E8FF0FC0D8FF1000F9EF17F0FE
:100D000001000A006400E803102703050000020A3E
:100D1000180F3C736F757263652F44617461436F84
:100D20006D6D735461736B2E6300736F75726365C1
:100D30002F4543414E2E63002046696C653A2000E2
:100D40004C696E653A20000D0A0025640000306E83
:100D5000000E00010001616F305060AE01D001D083
:100D60003CD00D0E226E400E216E6BEC17F0030E80
:100D7000226E3C0E216E6BEC17F00D0E226E380EBB
:100D8000216E6BEC17F00D0E226E2A0E216E6BECAD
:100D900017F00D0E226E470E216E6BEC17F0A4902B
:100DA00074AE01D001D008D0DDC0D9FFDEC0DAFFBB
:100DB000000EDB86749E00D060A004D0000100010C
:100DC000618103D00001000161910F0E000100015B
:100DD000ED6F600E0001EC6FB2D00F010F0150AF4C
:100DE00001D001D068D00D0E226E400E216E6BEC4A
:100DF00017F0030E226E550E216E6BEC17F00D0EE0
:100E0000226E380E216E6BEC17F00D0E226E2A0E3C
:100E1000216E6BEC17F00D0E226E470E216E6BECFF
:100E200017F0A49274AC01D001D008D0DDC0D9FF76
:100E3000DEC0DAFF000EDB86749C00D00F010F01CC
:100E40005051070B00010001616F020E000100010B
:100E5000616101D001D025D00D0E226E400E216EB1
:100E60006BEC17F0030E226E6B0E216E6BEC17F01D
:100E70000D0E226E380E216E6BEC17F00D0E226EE9
:100E80002A0E216E6BEC17F00D0E226E470E216EAE
:100E90006BEC17F0DDC0D9FFDEC0DAFF000EDB8E91
:100EA00000D00F010F0E00010001ED6F0F01500E79
:100EB0000001EC6F44D00D0E226E400E216E6BECE3
:100EC00017F0306E000E00010001DF6F305000019E
:100ED000000E00010001C86F0001DF0E0001C76FA6
:100EE0000D0E00010001CA6F4A0E0001C96F030E0A
:100EF00000010001CC6F7D0E0001CB6F0001BAEC48
:100F00000BF00001000E226E0001DF0E216E6BEC73
:100F100017F00D0E226E380E216E6BEC17F00D0ED1
:100F2000226E2A0E216E6BEC17F00D0E226E470E0C
:100F3000216E6BEC17F00FD10ED101D000D00D0E49
:100F4000226E400E216E6BEC17F0030E226ED80E4F
:100F5000216E6BEC17F00D0E226E380E216E6BECCD
:100F600017F00D0E226E2A0E216E6BEC17F00D0E8F
:100F7000226E470E216E6BEC17F0ECC0E9F0EDC06D
:100F8000EAF0DDC0D9FFDEC0DAFF000EDF6E00013F
:100F900020EE05F00001EC51D9260001ED51DA22D6
:100FA000DF5000010001EE6F00010001EE510F0B58
:100FB000DBC0D9FFDCC0DAFFDF6E00010001EEAD5F
:100FC00001D001D006D0DDC0D9FFDEC0DAFF000EAF
:100FD000DB8C000120EE02F00001EC51D92600016B
:100FE000ED51DA22DF5000010001EE6F0001000137
:100FF000EEA701D001D00DD0DDC0D9FFDEC0DAFFF1
:10100000000EDB8A306E010E00010001EE6F3050E1
:1010100007D0306E000E00010001EE6F305000D09E
:10102000010E00010001EC25206E000E0001000100
:10103000ED21216ED7C022F0D8C023F0EEC024F0FD
:10104000C5EC0EF0060E00010001EC27000E0001B9
:10105000ED23DBC0D9FFDCC0DAFFDF500001000167
:10106000EE6F306E000E00010001EB6F305016D0B5
:10107000ECC0D9FFEDC0DAFFD9C0E1FFDAC0E2FF72
:10108000DFCFE7FF00010001EC4BED2B0001000179
:10109000D94BDA2B00010001EB2B00D0000100013D
:1010A000EE5100010001EB5DD8A001D001D0E0D7E6
:1010B000A4AE01D001D008D0DDC0D9FFDEC0DAFF78
:1010C000000EDB88A49E00D0E9C0D9FFEAC0DAFF99
:1010D0007F0EDF160D0E226E400E216E6BEC17F0A8
:1010E000306E000E00010001E46F30500001000E70
:1010F00000010001C86F0001E40E0001C76F0D0E72
:1011000000010001CA6F4A0E0001C96F040E000100
:101110000001CC6F120E0001CB6F0001BAEC0BF096
:101120000001000E226E0001E40E216E6BEC17F040
:101130000D0E226E380E216E6BEC17F00D0E226E26
:101140002A0E216E6BEC17F00D0E226E470E216EEB
:101150006BEC17F000D01200C8D10D0E226E400EBD
:10116000216E6BEC17F0000E226E680E216E6BEC98
:1011700017F00D0E226E380E216E6BEC17F00D0E6F
:10118000226E130E216E6BEC17F00D0E226E470EC1
:10119000216E6BEC17F0ACEC13F00D0E226E400ECE
:1011A000216E6BEC17F0000E226E720E216E6BEC4E
:1011B00017F00D0E226E380E216E6BEC17F00D0E2F
:1011C000226E130E216E6BEC17F00D0E226E470E81
:1011D000216E6BEC17F0000E00010001626F000E33
:1011E00000010001BC6F000E00010001BB6F000E8A
:1011F00000010001B86F000E00010001BA6F000E7F
:1012000000010001B96F0001EF6F010E0001000144
:10121000606F0001EF5176D10001000E0001000166
:10122000D86F0001C10E0001D76F0001000E000150
:101230000001DA6F0001BD0E0001D96F0001000E40
:1012400000010001DC6F0001C50E0001DB6F000131
:10125000000E00010001DE6F0001C60E0001DD6F0F
:101260000001A7EC06F000010001C551D8B401D07F
:1012700001D043D00D0E226E400E216E6BEC17F0A4
:101280000001EF6F000E00010001F26F0001EF514D
:101290000001000E00010001C86F0001F20E000104
:1012A000C76F0D0E00010001CA6F4A0E0001C96F21
:1012B000000E00010001CC6F8E0E0001CB6F00010B
:1012C000BAEC0BF00001000E226E0001F20E216E4E
:1012D0006BEC17F00D0E226E380E216E6BEC17F0D2
:1012E0000D0E226E130E216E6BEC17F00D0E226E9A
:1012F000470E216E6BEC17F000D00001EF6F000E6F
:1013000000010001BD6F0001EF510001EF6F020EFF
:1013100000010001606F0001EF51F4D00001000EE8
:10132000216E0001B80E206E4DEC12F00009D8B409
:1013300001D001D0D0D00D0E226E400E216E6BEC8C
:1013400017F00001EF6F000E00010001F76F0001C0
:10135000EF510001000E00010001C86F0001F70EFF
:101360000001C76F0D0E00010001CA6F4A0E000197
:10137000C96F000E00010001CC6FA30E0001CB6FFE
:101380000001BAEC0BF00001000E226E0001F70E16
:10139000216E6BEC17F00D0E226E380E216E6BEC89
:1013A00017F00D0E226E130E216E6BEC17F00D0E62
:1013B000226E470E216E6BEC17F00001EF6F630E8B
:1013C00000010001BD6F0001EF51230E000100017B
:1013D000C76F010E0001C86F000E0001C96F000E3B
:1013E0000001CA6F0001000E00010001CC6F000176
:1013F000BD0E0001CB6F0001EF6F010E0001000177
:10140000CD6F0001EF510001F06F000E00010001EF
:10141000CE6F0001F0510001D6EC0DF00D0E226EE2
:10142000400E216E6BEC17F00001EF6F000E000113
:101430000001F76F0001EF510001000E00010001F3
:10144000C86F0001F70E0001C76F0D0E000100010B
:10145000CA6F4A0E0001C96F000E00010001CC6F77
:10146000B10E0001CB6F0001BAEC0BF00001000ED1
:10147000226E0001F70E216E6BEC17F00D0E226E3E
:10148000380E216E6BEC17F00D0E226E130E216ECE
:101490006BEC17F00D0E226E470E216E6BEC17F001
:1014A0000001000E216E0001B80E206E0001EF6FEA
:1014B000000E226E0001EF510001F06F030E236E4B
:1014C0000001F0510001F16F000E246E0001F15196
:1014D00083EC0AF000D00001EF6F010E0001000163
:1014E000606F0001EF510ED00DD00001000160517E
:1014F000000AD8B432D6010AD8B48ED6030AD8B4BA
:101500000DD700D01200000E2A6E110EF66E0D0ED1
:10151000F76E0800F5CF25F02450255CD8B001D037
:1015200001D008D0110EF66E0D0EF76E0800F5CF43
:1015300024F000D0120EF66E0D0EF76E0800F55076
:10154000235CD8A001D001D009D0120EF66E0D0E8A
:10155000F76E0800F5CF25F02504236E120EF66E07
:101560000D0EF76E0800F550225CD8A001D001D016
:1015700009D0120EF66E0D0EF76E0800F5CF25F0AD
:101580002504226E325024C025F0266A2526000E3E
:101590002622110EF66E0D0EF76E0800F550276E1E
:1015A000286A2850800A296E2550275C2650800A18
:1015B0002958D8A001D001D00AD03250242420C00C
:1015C000D9FF21C0DAFFDF6E000E2A6E11D0010EA6
:1015D0002A6E110EF66E0D0EF76E0800F55000081B
:1015E0002424322420C0D9FF21C0DAFFDF6E00D0CE
:1015F000120EF66E0D0EF76E0800F550256E266A77
:10160000335023C027F0286A2726000E28222A50AC
:101610002726000E28222850800A296E2550275C94
:101620002650800A2958D8B001D001D00DD020EE24
:1016300001F02050D9262150DA22335023242A24C5
:10164000DF6E000E2A6E14D020EE01F02050D92655
:101650002150DA22120EF66E0D0EF76E0800F550CC
:101660000008332423242A24DF6E010E2A6E00D0C2
:10167000120EF66E0D0EF76E0800F550256E266AF6
:10168000345022C027F0286A2726000E28222A502C
:101690002726000E28222850800A296E2550275C14
:1016A0002650800A2958D8B001D001D00DD020EEA4
:1016B00002F02050D9262150DA22345022242A2444
:1016C000DF6E000E2A6E14D020EE02F02050D926D4
:1016D0002150DA22120EF66E0D0EF76E0800F5504C
:1016E0000008342422242A24DF6E010E2A6E00D042
:1016F000100EF66E0D0EF76E0800F550256E266A78
:101700002A5035C027F0286A2726000E28222850A4
:10171000800A296E2550275C2650800A2958D8B0A7
:1017200001D001D00CD020EE03F02050D92621505A
:10173000DA2235502A24DF6E000E2A6E1AD0365077
:10174000256E266A010E2526000E26222650800AC6
:10175000800FFF0ED8B4255CD8B001D001D009D0DD
:1017600020EE04F02050D9262150DA22DF2A01D0C1
:1017700000D012000001000E00010001CE6F000138
:10178000CB0E0001CD6FE9D000010001D651250A32
:10179000D8B401D001D00CD0C7C0D9FFC8C0DAFF7F
:1017A0000001D6C0DFFF00010001C74BC82BD5D018
:1017B0002E6E000E00010001CF6F2E5005D0E2D03A
:1017C0001DD01CD0CAD01AD00001C9C0F6FF00013C
:1017D000CAC0F7FF00010001C94BCA2B0800000175
:1017E000F5CFD6F00001D651000AD8B4CBD0640AA8
:1017F000D8B404D00D0AD8B401D0AFD0CDC0D9FF31
:10180000CEC0DAFF0001DECFD1F00001DDCFD2F093
:10181000020E00010001CD27000E0001CE230001C1
:101820000001D2AF01D001D00CD0030E00010001A5
:10183000CF1300010001D16D0001D21FD8B0D22B0F
:1018400000D02E6E010E00010001D66F2E50000157
:101850000001D651050AD8A401D001D002D02BD066
:101860002AD000010001D651020D000EF324F66EBD
:101870000D0EF420F76E0900F5CF2EF00900F5CF1C
:101880002FF02E5000010001D15D2F50000100010A
:10189000D259D8B001D001D002D00DD00CD0000167
:1018A0000001D62B00010001D651050AD8A401D0B1
:1018B00001D0D7D700D000010001CF51030BD8B41D
:1018C00001D001D00BD0C7C0D9FFC8C0DAFF2D0EA0
:1018D000DF6E00010001C74BC82B00D0D6C0D0F08E
:1018E00031D000010001D051020D000EF324F66E3C
:1018F0000D0EF420F76E0900F5CF22F00A00F5CFA7
:1019000023F0D1C020F0D2C021F001EC17F020C0AC
:1019100028F021C029F0000E2B6E0A0E2A6ECBECA7
:1019200017F02850300F00010001D66FC7C0D9FF53
:10193000C8C0DAFF0001D6C0DFFF00010001C74BBD
:10194000C82B00D000010001D0070001D029D8A485
:1019500001D001D0C6D701D000D00001C9C0F6FF28
:101960000001CAC0F7FF00010001C94BCA2B0800E3
:101970000001F5CFD6F00001D66701D001D004D721
:1019800001D000D0C7C0D9FFC8C0DAFF000EDF6E9B
:1019900000D012000B0EF66E0D0EF76E0800F5CF9C
:1019A0003DF0000E206E000E216E000E226E000E25
:1019B000236E000E246E010E00010001636F010E04
:1019C000000100016E6F060E000100016F6F030E33
:1019D00000010001706F040E00010001716F000E24
:1019E00000010001726F20EE20F010EE69F0050E8C
:1019F000DECFE6FFE82EFCD720EE20F010EE64F0FC
:101A0000050EDECFE6FFE82EFCD70B0EF66E0D0EB0
:101A1000F76E08000001F5CF73F0010E0001000120
:101A2000746F010E000100017F6F060E00010001BE
:101A3000806F030E00010001816F040E00010001A0
:101A4000826F000E00010001836F20EE20F010EE87
:101A50007AF0050EDECFE6FFE82EFCD720EE20F070
:101A600010EE75F0050EDECFE6FFE82EFCD70B0E6C
:101A7000F66E0D0EF76E08000001F5CF84F0010E32
:101A800000010001856F010E00010001906F060E3C
:101A900000010001916F030E00010001926F040E1E
:101AA00000010001936F000E00010001946F20EE11
:101AB00020F010EE8BF0050EDECFE6FFE82EFCD70F
:101AC00020EE20F010EE86F0050EDECFE6FFE82EC9
:101AD000FCD70B0EF66E0D0EF76E08000001F5CF69
:101AE00095F0010E00010001966F010E000100014A
:101AF000A16F060E00010001A26F030E000100019C
:101B0000A36F040E00010001A46F000E000100018C
:101B1000A56F20EE20F010EE9CF0050EDECFE6FF64
:101B2000E82EFCD720EE20F010EE97F0050EDECF69
:101B3000E6FFE82EFCD70B0EF66E0D0EF76E0800D2
:101B40000001F5CFA6F0010E00010001A76F010E04
:101B500000010001B26F060E00010001B36F030E19
:101B600000010001B46F040E00010001B56F000E0A
:101B700000010001B66F20EE20F010EEADF0050E72
:101B8000DECFE6FFE82EFCD720EE20F010EEA8F026
:101B9000050EDECFE6FFE82EFCD70B0EF66E0D0E1F
:101BA000F76E08000001F5CFB7F012000F010F0E1D
:101BB00000010001D06F0F01400E0001CF6F0F0137
:101BC0000F0E00010001D26F0F01300E0001D16F26
:101BD0000F010F0E00010001D46F0F01200E000154
:101BE000D36F2B6E000E00010001E56F2B50010E2C
:101BF00000010001E56501D001D002D0C5D0C4D0FC
:101C000000010001E551020D0001CF0EF324D96E51
:101C10000001000EF420DA6E0001DECFE6F00001D4
:101C2000DDCFE7F0E6C0E2F0E7C0E3F0E6C0D9FFC1
:101C3000E7C0DAFFDF502B6E2BB601D001D099D070
:101C4000E6C0D9FFE7C0DAFFFC0EDF16CEC02BF0EE
:101C5000030E2B16E6C0D9FFE7C0DAFF2B50DF12C8
:101C600000010001CEAD01D001D008D0000100017B
:101C7000CD51400900010001E46F03D0CDC0E4F074
:101C800000D0000120EE05F00001E651D926000148
:101C9000E751DA220001E4C0DFFF00010001CEAB12
:101CA00001D001D007D02B6E010E00010001E46FBE
:101CB0002B5007D02B6E000E00010001E46F2B505B
:101CC00000D0010E00010001E625206E000E00018B
:101CD0000001E721216EC7C022F0C8C023F0C9C0AF
:101CE00024F0CAC025F0E4C026F0F7EC10F0060E90
:101CF00000010001E627000E0001E7232B6E000E15
:101D000000010001E16F2B5016D0CBC0D9FFCCC031
:101D1000DAFFE6C0E1FFE7C0E2FFDFCFE7FF000147
:101D20000001CB4BCC2B00010001E64BE72B00015F
:101D30000001E12B00D000010001CD5100010001A4
:101D4000E15DD8A001D001D0E0D700D0E2C0D9FF3A
:101D5000E3C0DAFFDF502B6E2BB401D001D014D0DA
:101D6000E2C0D9FFE3C0DAFF000EDB860DD00CD055
:101D70000BD000010001E52B010E00010001E5651B
:101D800001D001D03DD700D0120022C027F023C0DF
:101D900028F0246601D001D04AD020C0D9FF21C04C
:101DA000DAFFDF50256ED8902536D8902536D890AA
:101DB000253427C0D9FF28C0DAFFDF6E20EE01F0FE
:101DC0002750D9262850DA2220C0E1FF21C0E2FFA7
:101DD000E750256E050E266ED8902532262EFCD7AC
:101DE0002550DF6E204A212A20C0D9FF21C0DAFF0A
:101DF000DF50256E050E266ED8902532262EFCD794
:101E000027C0D9FF28C0DAFF2550DF1220EE02F0EC
:101E10002750D9262850DA22000EDF6E20EE03F07C
:101E20002750D9262850DA22000EDF6E6AD020EE25
:101E300002F02750D9262850DA2220C0E1FF21C025
:101E4000E2FFE750256E050E266ED8902536262E29
:101E5000FCD72550DF6E20EE03F02750D9262850FE
:101E6000DA2220C0E1FF21C0E2FFE750256ED890C2
:101E70002532D8902532D8902530DF6E204A212A8D
:101E800020C0D9FF21C0DAFFDF50256E030E2516D2
:101E900020EE02F02750D9262850DA222550DF12F2
:101EA00020C0D9FF21C0DAFFDF50256ED89025323F
:101EB000D8902532D89025321C0E251620EE02F03F
:101EC0002750D9262850DA222550DF12204A212A0D
:101ED00020C0D9FF21C0DAFF10EE01F02750E12623
:101EE0002850E222DFCFE7FF204A212A20C0D9FF75
:101EF00021C0DAFF27C0E1FF28C0E2FFDFCFE7FF04
:101F000000D012009CD00001CD6F010E0001000135
:101F1000D06F0001CD51CBC020F0CCC021F000012A
:101F2000CD6F000E226E0001CD510001CE6F000E6C
:101F3000236E0001CE510001CF6F000E246E000110
:101F4000CF5183EC0AF094D00001CD6F020E000156
:101F50000001D06F0001CD51CBC020F0CCC021F0EA
:101F60000001CD6F000E226E0001CD510001CE6F39
:101F7000000E236E0001CE510001CF6F000E246EC3
:101F80000001CF5183EC0AF073D00001CD6F030E36
:101F900000010001D06F0001CD51CBC020F0CCC0BA
:101FA00021F00001CD6F000E226E0001CD51000125
:101FB000CE6F000E236E0001CE510001CF6F000ED8
:101FC000246E0001CF5183EC0AF052D0C9C02BF02F
:101FD000CAC02CF0CBC02DF0CCC02EF00EEC14F00B
:101FE00000010001D06F44D0C9C02BF0CAC02CF052
:101FF000CBC02DF0CCC02EF069EC14F00001000134
:10200000D06F36D0C9C02BF0CAC02CF0CBC02DF099
:10201000CCC02EF0C4EC14F000010001D06F28D029
:10202000C9C02BF0CAC02CF0CBC02DF0CCC02EF014
:102030001FEC15F000010001D06F1AD019D000017B
:102040000001C851010AD8B45ED7030AD8B47CD7BE
:10205000010AD8B49AD7070AD8B4B8D7010AD8B4B5
:10206000C3D7030AD8B4CED7010AD8B4D9D700D081
:1020700000010001D05100D012002750030AD8A45B
:1020800001D001D050D00B0EF66E0D0EF76E080089
:10209000F5503D6201D001D003D026C03DF03ED0C6
:1020A0003DC029F011D02950110D100EF326000E5D
:1020B000F4220001630EF324D96E0001000EF42017
:1020C000DA6EDF50296E00D02950110D100EF32664
:1020D000000EF4220001630EF324D96E0001000EFD
:1020E000F420DA6E0B0EF66E0D0EF76E0800F5504A
:1020F000DF6201D001D0D7D700D02950110D100ECA
:10210000F326000EF4220001630EF324D96E0001C1
:10211000000EF420DA6E26C0DFFF00D026C025F0C6
:10212000AFEC19F000D02750040AD8A401D001D098
:1021300005D026C025F0B8EC19F000D02704D8A4AB
:1021400001D001D037D02650110D0001630EF324C9
:10215000D96E0001000EF420DA6E040EDF6201D0A9
:1021600001D028D03DC028F03D50110D100EF326AF
:10217000000EF4220001630EF324D96E0001000E5C
:10218000F420DA6EDF503D6E0B0EF66E0D0EF76E1C
:102190002850110D100EF326000EF4220001630EDC
:1021A000F324D96E0001000EF420DA6E0800F5CF9A
:1021B000DFFF00D02650110D0001630EF324D96E0D
:1021C0000001000EF420DA6E27C0DFFF2650110D4B
:1021D0000F0EF326000EF4220001630EF324D96ED5
:1021E0000001000EF420DA6E000EDF6E1200000E09
:1021F0002A6E220E296E266601D001D03AD029C05F
:10220000D9FF2AC0DAFFDF50276ED8902732D89046
:102210002732D890273020C0D9FF21C0DAFFDF6EE7
:1022200020EE01F02950D9262A50DA22DF50276EFD
:10223000050E286ED8902736282EFCD720C0D9FF4F
:1022400021C0DAFF2750DF12204A212A29C0D9FFF6
:102250002AC0DAFFDF50276E050E286ED890273689
:10226000282EFCD7275020C0D9FF21C0DAFFDF6E0F
:102270006FD020EE02F02950D9262A50DA22DF5002
:10228000276E050E286ED8902732282EFCD72750AF
:1022900020C0D9FF21C0DAFFDF6E20EE03F0295005
:1022A000D9262A50DA22DF50276ED8902736D890C8
:1022B0002736D890273620C0D9FF21C0DAFF275013
:1022C000DF12204A212A20EE02F02950D9262A5076
:1022D000DA22DF50276ED8902736D8902736D8904C
:1022E0002734E00B20C0D9FF21C0DAFFDF6E20C009
:1022F000D9FF21C0DAFF000EDB8620EE02F0295064
:10230000D9262A50DA22DF50276E030E271620C066
:10231000D9FF21C0DAFF2750DF12204A212A20EE00
:1023200001F02950D9262A50DA2220C0E1FF21C02D
:10233000E2FFDFCFE7FF204A212A29C0D9FF2AC0C8
:10234000DAFF20C0E1FF21C0E2FFDFCFE7FF00D0CE
:10235000120091D00101010E226E0101580E216E72
:102360006BEC17F02A6E020E3A6E2A5095D00E0EC4
:10237000F66E0D0EF76E0800F5CF2AF01AEC19F084
:102380002A18D8A401D001D087D02A6E020E3A6E46
:102390002A5082D081D01AEC19F03B6E0BD07CD041
:1023A0002A6E010E3A6E2A5077D02A6E040E3A6ECB
:1023B0002A5072D03B50000AD8B46ED0030AD8B469
:1023C000EFD7F3D769D005D02A6E010E3A6E2A50A6
:1023D00063D01AEC19F0F8D75FD03FD0CFEC19F0EA
:1023E0002B6E0B0EF66E0D0EF76E0800F5CF2AF071
:1023F0002B502A18D8B401D001D037D02BC020F0F0
:102400008EEC19F0040AD8A401D001D009D02BC059
:1024100026F02A6E010E276E2A503DEC10F000D0F7
:10242000CFEC19F02B6E0B0EF66E0D0EF76E08004A
:10243000F5CF2AF02B502A18D8B401D001D015D0EE
:102440002BC026F02A6E040E276E2A503DEC10F0A9
:102450000CD00BD00AD009D008D03B50610AD8B4B8
:10246000BDD7030AD8B401D000D02A6E020E3A6E4E
:102470002A5012D011D03A50000AD8B46BD7010AB2
:10248000D8B475D7030AD8B486D7010AD8B4A1D76F
:10249000070AD8B4E2D700D01200000E236E20EE57
:1024A00004F02050D9262150DA22DF50226E365017
:1024B000225CD8B001D001D003D0010E236E7BD0B6
:1024C00020EE04F02050D9262150DA22DF5020EEF1
:1024D00036F0DF6201D001D06ED020EE03F0205044
:1024E000D9262150DA22DF50226E3550225CD8B036
:1024F00001D001D003D0010E236E5DD020EE03F099
:102500002050D9262150DA22DF5020EE35F0DF624C
:1025100001D001D050D020EE02F02050D926215019
:10252000DA22DF50226E3450225CD8B001D001D0C4
:1025300003D0010E236E3FD020EE02F02050D926AA
:102540002150DA22DF5020EE34F0DF6201D001D0DA
:1025500032D020EE01F02050D9262150DA22DF506F
:10256000226E3350225CD8B001D001D003D0010ECE
:10257000236E21D020EE01F02050D9262150DA22FE
:10258000DF5020EE33F0DF6201D001D014D020C044
:10259000D9FF21C0DAFFDF50325CD8A001D001D0D2
:1025A0000AD0010E236E07D006D005D004D003D088
:1025B00002D001D000D0235000D012002BC020F058
:1025C00041EC19F020C02FF021C030F050D02BC0CA
:1025D00020F0BEEC16F00009D8B401D001D058D0DC
:1025E0002BC026F02C6E020E276E2C503DEC10F006
:1025F0002FC020F030C021F02C6E000E226E2C5027
:102600002D6E010E236E2D502E6E000E246E2E5058
:1026100083EC0AF03DD03CD02BC020F0BEEC16F08D
:102620000009D8B401D001D015D02FC020F030C09F
:1026300021F04DEC12F00009D8B401D001D028D01F
:102640002BC026F02C6E030E276E2C503DEC10F0A4
:102650001FD01ED02BC026F02C6E010E276E2C50E2
:102660003DEC10F015D014D013D012D011D02BC0E7
:1026700020F08EEC19F0010AD8B4A9D7030AD8B417
:10268000CBD7010AD8B404D0070AD8B401D000D0FF
:102690001200010E216E45D02050110D0B0EF326B5
:1026A000000EF4220001630EF324D96E0001000E27
:1026B000F420DA6EDF50216E4CD02050110D0C0E3C
:1026C000F326000EF4220001630EF324D96E0001FC
:1026D000000EF420DA6EDF50216E3BD02050110D39
:1026E0000D0EF326000EF4220001630EF324D96EC2
:1026F0000001000EF420DA6EDF50216E2AD0205047
:10270000110D0E0EF326000EF4220001630EF324C9
:10271000D96E0001000EF420DA6EDF50216E19D060
:1027200018D02050110D0001630EF324D96E000162
:10273000000EF420DA6EDF50010AD8B4ADD7030AD8
:10274000D8B4BBD7010AD8B4C9D7070AD8B4D7D7E9
:1027500000D0215000D01200216E800E206E21503A
:1027600071EC19F0430E706E7168070E726E200ED8
:10277000736E779E779C000E606E000E0F010F0146
:10278000506F000E0F010F01006F000E0F010F01BF
:10279000016F000E0F010F01046F000E0F010F01FA
:1027A000056F000E0F010F01086F000E0F010F01E2
:1027B000096F000E0F010F010C6F000E0F010F01CA
:1027C0000D6F000E0F010F01106F000E0F010F01B2
:1027D000116F000E0F010F01146F000E0F010F019A
:1027E000156F000E0F010F01186F000E0F010F0182
:1027F000196F0F010F011997000E0F010F011C6FC8
:10280000000E0F010F011D6F0F010F011D97216EAB
:10281000000E206E215071EC19F012002F6E000E88
:1028200000010001C76F2F5040D000D02F6E020E64
:1028300000010001C76F2F502DC020F02EC021F0E5
:102840002F6E000E226E2F50306E020E236E30500F
:10285000316E000E246E315083EC0AF02BC0D9FF8C
:102860002CC0DAFF020EDF6E2FD02F6E030E000198
:102870000001C76F2F502DC020F02EC021F02F6E09
:10288000000E226E2F50306E020E236E3050316ECD
:10289000000E246E315083EC0AF02BC0D9FF2CC0FF
:1028A000DAFF010EDF6E10D00FD02BC0D9FF2CC085
:1028B000DAFFDF50000AD8B4B9D7010AD8B4B6D7C6
:1028C000030AD8B4D2D700D000010001C75100D00C
:1028D00012002F6E000E00010001C76F2F5040D074
:1028E00000D02F6E020E00010001C76F2F502DC0C7
:1028F00020F02EC021F02F6E000E226E2F50306E71
:10290000000E236E3050316E010E246E315083EC78
:102910000AF02BC0D9FF2CC0DAFF020EDF6E2FD0D9
:102920002F6E010E00010001C76F2F502DC020F047
:102930002EC021F02F6E000E226E2F50306E000E32
:10294000236E3050316E020E246E315083EC0AF04B
:102950002BC0D9FF2CC0DAFF010EDF6E10D00FD0D4
:102960002BC0D9FF2CC0DAFFDF50000AD8B4B9D78A
:10297000010AD8B4B6D7030AD8B4D2D700D0000120
:102980000001C75100D012002F6E000E000100019F
:10299000C76F2F5040D000D02F6E030E00010001F2
:1029A000C76F2F502DC020F02EC021F02F6E000ECB
:1029B000226E2F50306E000E236E3050316E0A0E94
:1029C000246E315083EC0AF02BC0D9FF2CC0DAFF03
:1029D000020EDF6E2FD02F6E010E00010001C76FB7
:1029E0002F502DC020F02EC021F02F6E000E226E31
:1029F0002F50306E000E236E3050316E320E246E2A
:102A0000315083EC0AF02BC0D9FF2CC0DAFF010E45
:102A1000DF6E10D00FD02BC0D9FF2CC0DAFFDF50F3
:102A2000000AD8B4B9D7010AD8B4B6D7030AD8B4C3
:102A3000D2D700D000010001C75100D012002F6E84
:102A4000000E00010001C76F2F5040D000D02F6E44
:102A5000020E00010001C76F2F502DC020F02EC0C4
:102A600021F02F6E000E226E2F50306E000E236E5E
:102A70003050316E000E246E315083EC0AF02BC0C2
:102A8000D9FF2CC0DAFF020EDF6E2FD02F6E030E9F
:102A900000010001C76F2F502DC020F02EC021F083
:102AA0002F6E000E226E2F50306E000E236E3050AF
:102AB000316E000E246E315083EC0AF02BC0D9FF2A
:102AC0002CC0DAFF010EDF6E10D00FD02BC0D9FF63
:102AD0002CC0DAFFDF50000AD8B4B9D7010AD8B445
:102AE000B6D7030AD8B4D2D700D000010001C7512D
:102AF00000D0120043414E204D657373616765201D
:102B000053656E743A204F4646200D0A0043414EED
:102B1000204D6573736167652053656E743A204F6D
:102B20004E200D0A0043414E20436F6D6D616E646F
:102B30003A204F4646200D0A0043414E20436F6D18
:102B40006D616E643A204F4E200D0A0048656C6C32
:102B50006F20576F726C642E204461746120436F44
:102B60006D6D7320496E69742E2E2E2E20446F6E6B
:102B7000650A00437573746F6D6572204265696EF6
:102B800067205365727665643A200D0A00437573B9
:102B9000746F6D657220576174696E673A200D0A13
:102BA0000000D1C020F051EC19F020C0D2F021C0BB
:102BB000D3F0D1C020F061EC19F020C0D4F021C0D6
:102BC000D5F0D2C020F0D3C021F04DEC12F00009B6
:102BD000D8A401D001D009D000010001D551D411F1
:102BE000D8A401D001D031D000D0D1C020F049EC20
:102BF00013F000010001D66F10D0D1C020F074ECAA
:102C000018F023D0D1C020F097EC18F01ED0D1C01E
:102C100020F0BAEC18F019D018D0D6C0C8F0D4C043
:102C2000C9F0D5C0CAF0D2C0CBF0D3C0CCF00001FF
:102C300082EC0FF0010AD8B4E0D7030AD8B4E2D787
:102C4000010AD8B4E4D701D000D01200F2A401D018
:102C500001D04BD0322A110EF66E0D0EF76E080021
:102C6000F550325CD8A001D001D037D0332A000E05
:102C7000326E120EF66E0D0EF76E0800F550335CD4
:102C8000D8A001D001D029D0342A000E336E120E04
:102C9000F66E0D0EF76E0800F550345CD8A001D02A
:102CA00001D01BD0352A000E346E100EF66E0D0EBC
:102CB000F76E0800F550355CD8A001D001D00DD0DA
:102CC000000E356E3628D8B401D001D006D0362A91
:102CD00004D003D002D001D000D0000E216E000E2F
:102CE000206EA6EC19F0F29400D01200000EAC6E2B
:102CF000000EAB6E20A001D001D001D0AC8820A284
:102D000001D001D002D0AC8CAB8C20A401D001D07A
:102D100001D0AC8E20A601D001D002D0AB8801D06A
:102D2000AB8A20A801D001D001D0AC849E9820AA03
:102D300001D001D001D0AB8620AC01D001D002D0AF
:102D40009D8A01D09D9A9E9A20AE01D001D002D0DA
:102D50009D8801D09D9821C0AFFF2250B06EAC8AF3
:102D6000AB8E949C948EACA801D001D006D0ACBEA2
:102D700001D001D002D0948C00D01200216E000E40
:102D8000226E21502AD080B001D001D037D0216EE0
:102D9000010E226E215032D031D080B601D001D048
:102DA0002DD0216E010E226E215028D027D080BE5A
:102DB00001D001D023D0216E010E226E21501ED0F1
:102DC0001DD01CD081B801D001D018D0216E010EC9
:102DD000226E215013D012D011D02050000AD8B446
:102DE000D2D7010AD8B4D9D7030AD8B4E0D7010A98
:102DF000D8B404D0070AD8B4E5D700D0225000D008
:102E00001200000E276E000E266E23502210D8B43A
:102E100001D001D027D0246E010E256E245005D09C
:102E2000D89022362336252A00D023AE01D001D0F7
:102E3000F7D701D000D0D890263627362250205C14
:102E400023502158D8A001D001D006D02250205EB6
:102E50002350215A268000D0D89023322232252EAA
:102E6000EAD700D026C020F027C021F012000600CB
:102E7000EACF04F0E1CF05F0E2CF06F0D9CF07F0BA
:102E8000DACF08F0F3CF09F0F4CF0AF0F6CF0BF069
:102E9000F7CF0CF0F8CF0DF0F5CF0EF00EC0F5FF28
:102EA0000DC0F8FF0CC0F7FF0BC0F6FF0AC0F4FF1F
:102EB00009C0F3FF08C0DAFF07C0D9FF06C0E2FF70
:102EC00005C0E1FF04C0EAFF03C0E9FF02C0FBFF49
:102ED00001C0FAFF110000D0ACA201D001D0FCD794
:102EE00000D02150F66EE96E0C0EEA6E2250EA64B4
:102EF00003D0EA6EEF5003D0F76E0800F550206E55
:102F000080EC19F02150236E2250246E214A222A8F
:102F10002350F66EE96E0C0EEA6E2450EA6403D07C
:102F2000EA6EEF5003D0F76E0800F5500009D8A400
:102F300001D001D0D0D700D012000001D76F000E11
:102F400000010001D86F0001D7510B0EF66E0D0E77
:102F5000F76E0800F55000010001D85DD8A001D03F
:102F600001D002D017D016D0D8C0D1F00001D1ECDA
:102F700015F000010001D82B0B0EF66E0D0EF76E4A
:102F80000800F55000010001D85DD8A001D001D0A3
:102F9000EBD700D012002B502A10D8B401D001D0AA
:102FA00023D02C6E010E2D6E2C5005D0D8902A36D1
:102FB0002B362D2A00D02BAE01D001D0F7D701D06F
:102FC00000D02A50285C2B502958D8A001D001D01D
:102FD00005D02A50285E2B50295A00D0D8902B3289
:102FE0002A322D2EEED700D028C028F029C029F093
:102FF000120000EE60F0670EEE6AE806FDE100EEFA
:1030000032F00D0EEE6AE806FDE1F40EF66E2A0EC1
:10301000F76E000EF86E01EE00F010EEADF0090054
:10302000F5CFEEFFE550E150FAE1A40EF66E330E57
:10303000F76E000EF86E0900F5CF3FF00900F5CFEE
:1030400040F0000EF86E0001C1EF19F0316E000E75
:1030500000010001C76F31500B0EF66E0D0EF76EBA
:103060000800F55000010001C75DD8A001D001D0D3
:1030700002D016D015D0C7C02BF0DEEC12F0000144
:103080000001C72B0B0EF66E0D0EF76E0800F55003
:1030900000010001C75DD8A001D001D0ECD700D05D
:1030A00012007E0ED36E0F0EC16E890E926E080E48
:1030B000936E020E946E000E806E000E816E000EF6
:1030C000826EF28E236ED50E206E235030EC19F0F6
:1030D000F29A236E2C0E206E2350000E226E0C0EE0
:1030E000216E76EC16F0120010D0809280941ED0E3
:1030F0008098809A1BD0809C829018D0829482966F
:1031000015D08298829A12D011D02050000AD8B4DB
:10311000ECD7010AD8B4ECD7030AD8B4ECD7010A2B
:10312000D8B4ECD7070AD8B4ECD700D0120010D02E
:10313000809280841ED08098808A1BD0809C828060
:1031400018D08294828615D08288829A12D011D0AB
:103150002050000AD8B4ECD7010AD8B4ECD7030A3F
:10316000D8B4ECD7010AD8B4ECD7070AD8B4ECD756
:1031700000D0120010D0808280941ED08088809A67
:103180001BD0808C829018D08284829615D0829831
:10319000828A12D011D02050000AD8B4ECD7010A8C
:1031A000D8B4ECD7030AD8B4ECD7010AD8B4ECD71A
:1031B000070AD8B4ECD700D0120017D09BEC19F056
:1031C000CAEC0CF00001FC6F020E406E0001FC51D5
:1031D00014D026EC16F0C9EC19F026EC18F026EC09
:1031E00016F09DEC17F009D008D04050010AD8B471
:1031F000E5D7030AD8B4EDD700D01200F20E3C1682
:10320000ABAC01D001D007D03C90ABA001D001D035
:1032100002D03C8000D0ABA401D001D001D03C84CE
:10322000ABA201D001D001D03C86AECF20F020501F
:1032300000D012000C0EF66E0D0EF76E0800F5CFE2
:1032400021F09EAA01D001D008D0ACA201D001D0BB
:1032500004D0FEEC18F0216E00D0215000D01200F6
:1032600020507F0BD56E000ED76E000ED66EF294F6
:1032700020AE01D001D002D0F28A01D0F29AD58ED0
:1032800012002050110D010EF326000EF422000151
:10329000630EF324206E0001000EF420216E00D096
:1032A00012002050110D060EF326000EF42200012C
:1032B000630EF324206E0001000EF420216E00D076
:1032C00012002050110D0F0EF326000EF422000103
:1032D000630EF324206E0001000EF420216E00D056
:1032E00012001F0E6F1620506F1201D000D06F50C9
:1032F000E00B2018D8A401D001D0F9D700D01200DB
:10330000ACAC01D001D007D0AC903CA201D001D030
:1033100002D0AC8000D020C0ADFF12002050110DB3
:103320000001630EF324D96E0001000EF420DA6E62
:10333000DF5000D01200000E366E000E356E000E0B
:10334000326E000E346E000E336E120020C022F07A
:1033500021C023F023C0D7FF22C0D6FF12000101F5
:10336000010E226E0101990E216E6BEC17F0120016
:103370000101010E226E01017F0E216E6BEC17F030
:10338000120051EC18F0DDEC18F0FDD7FCD751EF2E
:1033900000F0ACEC08F0A9EC11F000D012003D50A8
:0633A00000D01200010143
:020000040020DA
:08000000FFFFFFFFFFFFFFFF00
:020000040030CA
:0E000000FF081F1EFF0080FF0FC00FE00F4023
:00000001FF
