:0400000051EF00F0CC
:10000800FACF12F0FBCF13F0E9CF14F0EACF15F0D6
:10001800E1CF16F0E2CF17F0D9CF18F0DACF19F008
:10002800F3CF1AF0F4CF1BF0F6CF1CF0F7CF1DF08A
:10003800F8CF1EF0F5CF1FF01FC0F5FF1EC0F8FF68
:100048001DC0F7FF1CC0F6FF1BC0F4FF1AC0F3FF6A
:1000580019C0DAFF18C0D9FF17C0E2FF16C0E1FFC8
:1000680015C0EAFF14C0E9FF13C0FBFF12C0FAFF76
:100078001100FACF24F0FBCF25F0E9CF26F0B4ED3C
:1000880008F0E9FF05C0FBFF04C0FAFF03C0E0FF6A
:0E00980002C0E8FF01C0D8FF1000E5EF0AF03B
:100D00000500020005000A000000ECEC09F0000EEE
:100D100000010001D96F000E0001D86F0001FDEC49
:100D200008F00001D8C0E2F00001D9C0E3F0000EE5
:100D300000010001E56F000E0001E46F000EF66E89
:100D40000D0EF76E0900F5CFDFF00900F5CFE0F0EA
:100D500000010001E551800A0001E16FDF5100014F
:100D60000001E45D0001E051800A0001E159D8A0D2
:100D700001D001D002D046D045D00001E4C0DFF060
:100D80000001E5C0E0F00001D890DF37E037000156
:100D9000D890DF37E0370001D890DF37E037020E18
:100DA0000001DF27000EE0230001600E0001DF25B7
:100DB000D96E0001000E0001E021DA6E000EDF6E38
:100DC00000010001E44BE52B000EF66E0D0EF76EF0
:100DD0000900F5CFDFF00900F5CFE0F000010001D8
:100DE000E551800A0001E16FDF5100010001E45D7F
:100DF0000001E051800A0001E159D8A001D001D0E2
:100E0000BCD700D0000144EC09F00001D2C066F06C
:100E10000001D3C067F0000144EC09F00001D2C02A
:100E20006EF00001D3C06FF0000144EC09F0000146
:100E3000D2C076F00001D3C077F0000144EC09F095
:100E40000001D2C07EF00001D3C07FF0000144EC6D
:100E500009F00001D2C086F00001D3C087F0120073
:100E600075D0D7C0D2F0D8C0D3F00001BBEC07F0EA
:100E70000009D8B401D001D07DD0D7C0D2F0D8C0FD
:100E8000D3F00001D96F010E00010001D46F000101
:100E9000D95100019CEC0AF06DD06CD0D7C0D2F0D3
:100EA000D8C0D3F00001BBEC07F00009D8A401D0F2
:100EB00001D060D0D7C0D2F0D8C0D3F00001D96F34
:100EC000020E00010001D46F0001D95100019CEC19
:100ED0000AF050D04FD0D7C0D2F0D8C0D3F0000124
:100EE000BBEC07F00009D8B401D001D043D0D7C083
:100EF000D2F0D8C0D3F00001D96F030E0001000179
:100F0000D46F0001D95100019CEC0AF033D032D0EB
:100F1000D7C0D2F0D8C0D3F00001BBEC07F0000975
:100F2000D8A401D001D026D0D7C0D2F0D8C0D3F0F9
:100F30000001D96F000E00010001D46F0001D951EA
:100F400000019CEC0AF016D015D014D0D7C0D2F016
:100F5000D8C0D3F00001C1EC0AF0000AD8B481D7A0
:100F6000010AD8B49BD7030AD8B4B5D7010AD8B4BC
:100F7000CFD700D012000001D46F000E0001000195
:100F8000D66F0001D4512DD080B001D001D047D010
:100F90000001D46F010E00010001D66F0001D45191
:100FA0003ED03DD080B601D001D039D00001D46F01
:100FB000010E00010001D66F0001D45130D02FD0B6
:100FC00080BE01D001D02BD00001D46F010E0001F2
:100FD0000001D66F0001D45122D021D020D01FD0E3
:100FE0001ED00001D2C0D4F00001D3C0D5F0000162
:100FF000D551000AD8B401D012D00001D451000A52
:10100000D8B4C2D7010AD8B4CDD7030AD8B4D8D738
:10101000010AD8B404D0070AD8B401D000D0000126
:101020000001D65100D01200000E00010001DE6F59
:10103000000E0001DD6F000EF66E0D0EF76E09005A
:10104000F5CFDAF00900F5CFDBF000010001DE5149
:10105000800A0001DC6FDA5100010001DD5D000152
:10106000DB51800A0001DC59D8A001D001D002D0A8
:101070002AD029D0DDC0D7F0DEC0D8F0000130EC96
:1010800007F000010001DD4BDE2B000EF66E0D0EA9
:10109000F76E0900F5CFDAF00900F5CFDBF00001BB
:1010A0000001DE51800A0001DC6FDA51000100010D
:1010B000DD5D0001DB51800A0001DC59D8A001D0C0
:1010C00001D0D8D700D01200000E00010001DC6F63
:1010D000000E0001DB6F000EF66E0D0EF76E0900BC
:1010E000F5CFD8F00900F5CFD9F000010001DC51AF
:1010F000800A0001DA6FD85100010001DB5D0001B8
:10110000D951800A0001DA59D8A001D001D002D00B
:101110002AD029D0DBC0D6F0DCC0D7F00001BCEC6F
:1011200009F000010001DB4BDC2B000EF66E0D0E0A
:10113000F76E0900F5CFD8F00900F5CFD9F000011E
:101140000001DC51800A0001DA6FD8510001000172
:10115000DB5D0001D951800A0001DA59D8A001D025
:1011600001D0D8D700D012000600EACF27F0E1CF97
:1011700028F0E2CF29F0D9CF2AF0DACF2BF0F3CF45
:101180002CF0F4CF2DF0F6CF2EF0F7CF2FF0F8CFD4
:1011900030F0F5CF31F0F2AA01D001D00FD0F2A497
:1011A00001D001D00BD0F29412EC0BF0000E216EA6
:1011B000000E206E1CEC0BF0818202D0818600D0E4
:1011C00031C0F5FF30C0F8FF2FC0F7FF2EC0F6FF8B
:1011D0002DC0F4FF2CC0F3FF2BC0DAFF2AC0D9FFCB
:1011E00029C0E2FF28C0E1FF27C0EAFF26C0E9FFCF
:1011F00025C0FBFF24C0FAFF110000010001D9BF88
:1012000001D001D03BD0040EF66E0D0EF76E090032
:10121000F5CFDAF00900F5CFDBF00001DB51800AF1
:101220000001DC6F0001D8510001DA5D000100010E
:10123000D951800A0001DC59D8A001D001D01ED0BC
:10124000D8C0D2F0D9C0D3F0000E00010001D56F94
:10125000060E0001D46F000188EC09F00001B40E05
:1012600000010001D22500010001DD6F0001000E28
:1012700000010001D3210001DE6F00D0DDC0D8F0F5
:10128000DEC0D9F000D01200060EF66E0D0EF76E1D
:101290000900F5CFD4F00900F5CFD5F00001000129
:1012A0008951800A0001D66F0001D451000100016C
:1012B000885D0001D551800A0001D659D8B001D00F
:1012C00001D020D0000188C0D4F0000189C0D5F041
:1012D0000001D890D437D5370001D890D437D5370E
:1012E00000018C0E0001D42500010001D76F000120
:1012F000000E0001D5210001D86F00010001884BCC
:10130000892B00D0D7C0D2F0D8C0D3F000D01200C3
:10131000000E00010001D76F000E0001D66F00D053
:1013200000010001D2A101D001D00DD000010001C7
:10133000D45100010001D62700010001D551000160
:101340000001D72300D0000100010001D890D4375C
:10135000D537000100010001D890D333D23300010A
:101360000001D351D211D8A401D001D0D9D7D6C011
:10137000D2F0D7C0D3F012001AD0D6C0D2F0D7C066
:10138000D3F000011BEC0AF026D0D6C0D2F0D7C0B3
:10139000D3F0000147EC0AF01ED0D6C0D2F0D7C07F
:1013A000D3F0000147EC0AF016D015D014D0D6C007
:1013B000D2F0D7C0D3F00001C1EC0AF0000AD8B4D3
:1013C000DCD7010AD8B4E1D7030AD8B4E6D7010ABA
:1013D000D8B401D000D012000001D26F010E366ED9
:1013E0000001D251000E356E0A0E346E0001D26F2C
:1013F000020E396E0001D251000E386E0A0E376EA1
:10140000000E00010001B56F340E0001B46F020E32
:10141000F66E0D0EF76E09000001F5CFB6F00A006A
:101420000001F5CFB7F0000E00010001B96F000E0A
:101430000001B86F12000CD08092808427D0809871
:10144000808A24D0809C828021D020D01FD01ED0C2
:101450000001D2C0D4F00001D3C0D5F00001D551B5
:10146000000AD8B401D012D00001D451000AD8B477
:10147000E3D7010AD8B4E3D7030AD8B4E3D7010A03
:10148000D8B404D0070AD8B401D000D012000CD0D0
:101490008082809427D08088809A24D0808C82900B
:1014A00021D020D01FD01ED00001D2C0D4F0000126
:1014B000D3C0D5F00001D551000AD8B401D012D064
:1014C0000001D451000AD8B4E3D7010AD8B4E3D755
:1014D000030AD8B4E3D7010AD8B404D0070AD8B4B1
:1014E00001D000D0120012D085EC06F0000E0001F1
:1014F00000018B6F010E00018A6F1DD028EC0BF0EC
:1015000014EC08F064EC08F016D015D000018AC085
:10151000E6F000018BC0E7F00001E751000AD8B403
:1015200001D009D00001E651000AD8B4DDD7010A84
:10153000D8B4E4D700D012000001D2C0D5F0000129
:10154000D3C0D6F00001D890D537D6370001D89057
:10155000D537D6370001D890D537D637020E0001DF
:10156000D527000ED6230001600E0001D525D96EC7
:101570000001000E0001D621DA6E0001D4C0DFFFA9
:1015800012000001D2C0D4F00001D3C0D5F0000198
:10159000D890D437D5370001D890D437D53700014B
:1015A000D890D437D537020E0001D427000ED523AA
:1015B0000001600E0001D425D96E0001000E00016B
:1015C000D521DA6EDF5000D0120000EE60F0720E0E
:1015D000EE6AE806FDE100EE32F0080EEE6AE8067B
:1015E000FDE1000EF86E000105EF0BF00F0EC16E6D
:1015F000890E926E000E936E020E946E000E806E37
:10160000000E816E000E826E120025EC0BF0F6ECDF
:101610000AF029EC0BF000D073EC0AF0FDD7FCD7F0
:1016200051EF00F005D0000E336E000E326E03D085
:10163000324A332A00D0120020C022F021C023F009
:1016400023C0D7FF22C0D6FF12007E0ED36E120039
:041650001200120072
:020000040020DA
:08000000FFFFFFFFFFFFFFFF00
:020000040030CA
:0E000000FF081F1EFF0080FF0FC00FE00F4023
:00000001FF
