:0400000051EF00F0CC
:10000800FACF01F0FBCF02F0E9CF03F0F9ED14F0DD
:10001800D8CF0FF0E8CF10F0E0CF11F0FACF12F000
:10002800FBCF13F0E9CF14F0EACF15F0E1CF16F0CB
:10003800E2CF17F0D9CF18F0DACF19F0F3CF1AF0D2
:10004800F4CF1BF0F6CF1CF0F7CF1DF0F8CF1EF061
:10005800F5CF1FF01FC0F5FF1EC0F8FF1DC0F7FF4A
:100068001CC0F6FF1BC0F4FF1AC0F3FF19C0DAFF6B
:1000780018C0D9FF17C0E2FF16C0E1FF15C0EAFF9C
:1000880014C0E9FF13C0FBFF12C0FAFF11C0E0FF64
:0E00980010C0E8FF0FC0D8FF10005BEF15F09E
:100D000001000A006400E803102703050000020A3E
:100D1000180F3C736F757263652F44617461436F84
:100D20006D6D735461736B2E6300736F75726365C1
:100D30002F4543414E2E63002046696C653A2000E2
:100D40004C696E653A20000D0A0025640000306E83
:100D5000000E00010001616F305060AE37D00D0E03
:100D6000226E400E216EB3EC15F0030E226E3C0E87
:100D7000216EB3EC15F00D0E226E380E216EB3EC21
:100D800015F00D0E226E2A0E216EB3EC15F00D0E2D
:100D9000226E470E216EB3EC15F0A49074AE07D00E
:100DA000DDC0D9FFDEC0DAFF000EDB86749E60A0D6
:100DB00004D000010001618103D0000100016191B4
:100DC0000F0E00010001ED6F600E63D00F010F01E7
:100DD00050AF62D00D0E226E400E216EB3EC15F0B6
:100DE000030E226E550E216EB3EC15F00D0E226E21
:100DF000380E216EB3EC15F00D0E226E2A0E216E08
:100E0000B3EC15F00D0E226E470E216EB3EC15F00B
:100E1000A49274AC07D0DDC0D9FFDEC0DAFF000EAB
:100E2000DB86749C0F010F015051070B000100017C
:100E3000616F020E00010001616124D00D0E226E6F
:100E4000400E216EB3EC15F0030E226E6B0E216E78
:100E5000B3EC15F00D0E226E380E216EB3EC15F0CA
:100E60000D0E226E2A0E216EB3EC15F00D0E226EC1
:100E7000470E216EB3EC15F0DDC0D9FFDEC0DAFFFE
:100E8000000EDB8E0F010F0E00010001ED6F0F0150
:100E9000500E0001EC6F40D00D0E226E400E216E00
:100EA000B3EC15F0306E000E00010001DF6F305022
:100EB0000001000E00010001C86F0001DF0E0001FB
:100EC000C76F0D0E00010001CA6F4A0E0001C96F05
:100ED000030E00010001CC6F7D0E0001CB6F70ECA2
:100EE0000CF00001000E226E0001DF0E216EB3EC4B
:100EF00015F00D0E226E380E216EB3EC15F00D0EAE
:100F0000226E2A0E216EB3EC15F00D0E226E470EE6
:100F1000216EB3EC15F0FBD00D0E226E400E216E4B
:100F2000B3EC15F0030E226ED80E216EB3EC15F063
:100F30000D0E226E380E216EB3EC15F00D0E226EE2
:100F40002A0E216EB3EC15F00D0E226E470E216EA7
:100F5000B3EC15F0ECC0E9F0EDC0EAF0DDC0D9FF6C
:100F6000DEC0DAFF000EDF6E000120EE05F00001AA
:100F7000EC51D9260001ED51DA22DF5000010001C9
:100F8000EE6F00010001EE510F0BDBC0D9FFDCC09A
:100F9000DAFFDF6E00010001EEAD06D0DDC0D9FF43
:100FA000DEC0DAFF000EDB8C000120EE02F0000153
:100FB000EC51D9260001ED51DA22DF500001000189
:100FC000EE6F00010001EEA709D0DDC0D9FFDEC041
:100FD000DAFF000EDB8A306E010E02D0306E000E9A
:100FE00000010001EE6F3050010E00010001EC2500
:100FF000206E000E00010001ED21216ED7C022F00D
:10100000D8C023F0EEC024F026EC0EF0060E00014E
:101010000001EC27000E0001ED23DBC0D9FFDCC08E
:10102000DAFFDF5000010001EE6F306E000E0001AC
:101030000001EB6F305015D0ECC0D9FFEDC0DAFFE6
:10104000D9C0E1FFDAC0E2FFDFCFE7FF0001000116
:10105000EC4BED2B00010001D94BDA2B0001000114
:10106000EB2B00010001EE5100010001EB5DD8A067
:10107000E3D7A4AE07D0DDC0D9FFDEC0DAFF000E93
:10108000DB88A49EE9C0D9FFEAC0DAFF7F0EDF1635
:101090000D0E226E400E216EB3EC15F0306E000E78
:1010A00000010001E46F30500001000E000100015A
:1010B000C86F0001E40E0001C76F0D0E00010001B2
:1010C000CA6F4A0E0001C96F040E00010001CC6F07
:1010D000120E0001CB6F70EC0CF00001000E226EBE
:1010E0000001E40E216EB3EC15F00D0E226E380EE9
:1010F000216EB3EC15F00D0E226E2A0E216EB3ECAC
:1011000015F00D0E226E470E216EB3EC15F0120095
:10111000AFD10D0E226E400E216EB3EC15F0000E15
:10112000226E680E216EB3EC15F00D0E226E380E95
:10113000216EB3EC15F00D0E226E130E216EB3EC82
:1011400015F00D0E226E470E216EB3EC15F0CBECB0
:1011500011F00D0E226E400E216EB3EC15F0000E54
:10116000226E720E216EB3EC15F00D0E226E380E4B
:10117000216EB3EC15F00D0E226E130E216EB3EC42
:1011800015F00D0E226E470E216EB3EC15F0000E19
:1011900000010001626F000E00010001BC6F000E33
:1011A00000010001BB6F000E00010001B86F000ECE
:1011B00000010001BA6F000E00010001B96F4FD1AC
:1011C0000001000E00010001D86F0001C10E0001F6
:1011D000D76F0001000E00010001DA6F0001BD0EA3
:1011E0000001D96F0001000E00010001DC6F000159
:1011F000C50E0001DB6F0001000E00010001DE6F73
:101200000001C60E0001DD6FA7EC06F00001000131
:10121000C551D8B441D00D0E226E400E216EB3ECF4
:1012200015F00001EF6F000E00010001F26F0001E8
:10123000EF510001000E00010001C86F0001F20E25
:101240000001C76F0D0E00010001CA6F4A0E0001B8
:10125000C96F000E00010001CC6F8E0E0001CB6F34
:1012600070EC0CF00001000E226E0001F20E216EF7
:10127000B3EC15F00D0E226E380E216EB3EC15F0A6
:101280000D0E226E130E216EB3EC15F00D0E226EB4
:10129000470E216EB3EC15F00001EF6F000E000158
:1012A0000001BD6F0001EF510001EF6F020EDAD0B7
:1012B0000001000E216E0001B80E206E61EC11F0ED
:1012C0000009D8B4CCD00D0E226E400E216EB3ECC6
:1012D00015F00001EF6F000E00010001F76F000133
:1012E000EF510001000E00010001C86F0001F70E70
:1012F0000001C76F0D0E00010001CA6F4A0E000108
:10130000C96F000E00010001CC6FA30E0001CB6F6E
:1013100070EC0CF00001000E226E0001F70E216E41
:10132000B3EC15F00D0E226E380E216EB3EC15F0F5
:101330000D0E226E130E216EB3EC15F00D0E226E03
:10134000470E216EB3EC15F00001EF6F630E000144
:101350000001BD6F0001EF51230E00010001C76FB6
:10136000010E0001C86F000E0001C96F000E0001E0
:10137000CA6F0001000E00010001CC6F0001BD0E1C
:101380000001CB6F0001EF6F010E00010001CD6F76
:101390000001EF510001F06F000E00010001CE6F5F
:1013A0000001F05156EC0DF00D0E226E400E216E34
:1013B000B3EC15F00001EF6F000E00010001F76FB4
:1013C0000001EF510001000E00010001C86F000193
:1013D000F70E0001C76F0D0E00010001CA6F4A0E23
:1013E0000001C96F000E00010001CC6FB10E0001B9
:1013F000CB6F70EC0CF00001000E226E0001F70EB6
:10140000216EB3EC15F00D0E226E380E216EB3EC8A
:1014100015F00D0E226E130E216EB3EC15F00D0EAD
:10142000226E470E216EB3EC15F00001000E216E06
:101430000001B80E206E0001EF6F000E226E000159
:10144000EF510001F06F030E236E0001F051000117
:10145000F16F000E246E0001F15145EC0AF000011D
:10146000EF6F010E00010001606F0001EF510CD021
:10147000000100016051000AD8B44BD6010AD8B46B
:101480009FD6030AD8B414D71200000E2A6E110E8C
:10149000F66E0D0EF76E0800F5CF25F02450255C92
:1014A000D8B007D0110EF66E0D0EF76E0800F5CF0E
:1014B00024F0120EF66E0D0EF76E0800F550235C48
:1014C000D8A009D0120EF66E0D0EF76E0800F5CFFB
:1014D00025F02504236E120EF66E0D0EF76E080031
:1014E000F550225CD8A009D0120EF66E0D0EF76EE4
:1014F0000800F5CF25F02504226E325024C025F0D7
:10150000266A2526000E2622110EF66E0D0EF76EA7
:101510000800F550276E286A2850800A296E255049
:10152000275C2650800A2958D8A00AD0325024249B
:1015300020C0D9FF21C0DAFFDF6E000E2A6E10D066
:10154000010E2A6E110EF66E0D0EF76E0800F550A4
:1015500000082424322420C0D9FF21C0DAFFDF6E26
:10156000120EF66E0D0EF76E0800F550256E266A07
:10157000335023C027F0286A2726000E28222A503D
:101580002726000E28222850800A296E2550275C25
:101590002650800A2958D8B00CD020EE01F02050F7
:1015A000D9262150DA22335023242A24DF6E000E5C
:1015B00012D020EE01F02050D9262150DA22120E4E
:1015C000F66E0D0EF76E0800F55000083324232444
:1015D0002A24DF6E010E2A6E120EF66E0D0EF76EC5
:1015E0000800F550256E266A345022C027F0286A7C
:1015F0002726000E28222A502726000E28222850AF
:10160000800A296E2550275C2650800A2958D8B0B8
:101610000CD020EE02F02050D9262150DA2234508E
:1016200022242A24DF6E000E12D020EE02F0205079
:10163000D9262150DA22120EF66E0D0EF76E080032
:10164000F5500008342422242A24DF6E010E2A6E6D
:10165000100EF66E0D0EF76E0800F550256E266A18
:101660002A5035C027F0286A2726000E2822285045
:10167000800A296E2550275C2650800A2958D8B048
:101680000CD020EE03F02050D9262150DA2235501C
:101690002A24DF6E000E2A6E16D03650256E266A7A
:1016A000010E2526000E26222650800A800FFF0EEE
:1016B000D8B4255CD8B007D020EE04F02050D9264D
:1016C0002150DA22DF2A12000B0EF66E0D0EF76E95
:1016D0000800F5CF3DF0000E206E000E216E000ECA
:1016E000226E000E236E000E246E010E000100011A
:1016F000636F010E000100016E6F060E0001000114
:101700006F6F030E00010001706F040E00010001F5
:10171000716F000E00010001726F20EE20F010EEDC
:1017200069F0050EDECFE6FFE82EFCD720EE20F0B4
:1017300010EE64F0050EDECFE6FFE82EFCD70B0EB0
:10174000F66E0D0EF76E08000001F5CF73F0010E76
:1017500000010001746F010E000100017F6F060E91
:1017600000010001806F030E00010001816F040E73
:1017700000010001826F000E00010001836F20EE66
:1017800020F010EE7AF0050EDECFE6FFE82EFCD753
:1017900020EE20F010EE75F0050EDECFE6FFE82E0D
:1017A000FCD70B0EF66E0D0EF76E08000001F5CF9C
:1017B00084F0010E00010001856F010E000100019F
:1017C000906F060E00010001916F030E00010001F1
:1017D000926F040E00010001936F000E00010001E2
:1017E000946F20EE20F010EE8BF0050EDECFE6FFBA
:1017F000E82EFCD720EE20F010EE86F0050EDECFAE
:10180000E6FFE82EFCD70B0EF66E0D0EF76E080005
:101810000001F5CF95F0010E00010001966F010E59
:1018200000010001A16F060E00010001A26F030E6E
:1018300000010001A36F040E00010001A46F000E5F
:1018400000010001A56F20EE20F010EE9CF0050EC7
:10185000DECFE6FFE82EFCD720EE20F010EE97F06A
:10186000050EDECFE6FFE82EFCD70B0EF66E0D0E52
:10187000F76E08000001F5CFA6F0010E000100018F
:10188000A76F010E00010001B26F060E00010001FA
:10189000B36F030E00010001B46F040E00010001DC
:1018A000B56F000E00010001B66F20EE20F010EEC3
:1018B000ADF0050EDECFE6FFE82EFCD720EE20F0DF
:1018C00010EEA8F0050EDECFE6FFE82EFCD70B0EDB
:1018D000F66E0D0EF76E08000001F5CFB7F012009E
:1018E0000001000E00010001CE6F0001CB0E0001CF
:1018F000CD6FC4D000010001D651250AD8B40CD058
:10190000C7C0D9FFC8C0DAFF0001D6C0DFFF0001A1
:101910000001C74BC82BB2D02E6E000E0001000193
:10192000CF6F2E500001C9C0F6FF0001CAC0F7FFFB
:1019300000010001C94BCA2B08000001F5CFD6F009
:101940000001D651000AD8B4AAD0640AD8A40D0A5E
:10195000D8A494D0CDC0D9FFCEC0DAFF0001DECF2D
:10196000D1F00001DDCFD2F0020E00010001CD2741
:10197000000E0001CE2300010001D2AF0BD0030EF8
:1019800000010001CF1300010001D16D0001D21F41
:10199000D8B0D22B2E6E010E00010001D66F2E5052
:1019A00000010001D651050AD8B41ED00001000183
:1019B000D651020D000EF324F66E0D0EF420F76ED4
:1019C0000900F5CF2EF00900F5CF2FF02E500001C1
:1019D0000001D15D2F5000010001D259D8A004D0E0
:1019E00000010001D62BDCD700010001CF51030B11
:1019F000D8B40AD0C7C0D9FFC8C0DAFF2D0EDF6E39
:101A000000010001C74BC82BD6C0D0F030D0000178
:101A10000001D051020D000EF324F66E0D0EF420DD
:101A2000F76E0900F5CF22F00A00F5CF23F0D1C000
:101A300020F0D2C021F088EC15F020C028F021C0A1
:101A400029F0000E2B6E0A0E2A6E28EC16F0285094
:101A5000300F00010001D66FC7C0D9FFC8C0DAFF40
:101A60000001D6C0DFFF00010001C74BC82B0001F9
:101A70000001D0070001D029D8A4C9D70001C9C0EE
:101A8000F6FF0001CAC0F7FF00010001C94BCA2BD5
:101A900008000001F5CFD6F00001D6672BD7C7C0EC
:101AA000D9FFC8C0DAFF000EDF6E12000F010F0E63
:101AB00000010001D06F0F01400E0001CF6F0F0138
:101AC0000F0E00010001D26F0F01300E0001D16F27
:101AD0000F010F0E00010001D46F0F01200E000155
:101AE000D36F2B6E000E00010001E56F2B50A8D0C4
:101AF00000010001E551020D0001CF0EF324D96E63
:101B00000001000EF420DA6E0001DECFE6F00001E5
:101B1000DDCFE7F0E6C0E2F0E7C0E3F0E6C0D9FFD2
:101B2000E7C0DAFFDF502B6E2BB687D0E6C0D9FFB7
:101B3000E7C0DAFFFC0EDF16CEC02BF0030E2B162B
:101B4000E6C0D9FFE7C0DAFF2B50DF120001000129
:101B5000CEAD08D000010001CD51400900010001C7
:101B6000E46F02D0CDC0E4F0000120EE05F00001EA
:101B7000E651D9260001E751DA220001E4C0DFFF77
:101B800000010001CEAB03D02B6E010E02D02B6EF4
:101B9000000E00010001E46F2B50010E0001000156
:101BA000E625206E000E00010001E721216EC7C06E
:101BB00022F0C8C023F0C9C024F0CAC025F0E4C098
:101BC00026F08FEC0FF0060E00010001E627000E54
:101BD0000001E7232B6E000E00010001E16F2B5086
:101BE00015D0CBC0D9FFCCC0DAFFE6C0E1FFE7C01B
:101BF000E2FFDFCFE7FF00010001CB4BCC2B000160
:101C00000001E64BE72B00010001E12B0001000180
:101C1000CD5100010001E15DD8A0E3D7E2C0D9FFBA
:101C2000E3C0DAFFDF502B6E2BB40FD0E2C0D9FF38
:101C3000E3C0DAFF000EDB8608D000010001E52BCF
:101C4000010E00010001E56553D7120022C027F004
:101C500023C028F024664AD020C0D9FF21C0DAFF73
:101C6000DF50256ED8902536D8902536D89025346B
:101C700027C0D9FF28C0DAFFDF6E20EE01F0275021
:101C8000D9262850DA2220C0E1FF21C0E2FFE75028
:101C9000256E050E266ED8902532262EFCD72550AF
:101CA000DF6E204A212A20C0D9FF21C0DAFFDF5091
:101CB000256E050E266ED8902532262EFCD727C01D
:101CC000D9FF28C0DAFF2550DF1220EE02F027509E
:101CD000D9262850DA22000EDF6E20EE03F02750BE
:101CE000D9262850DA22000EDF6E69D020EE02F0ED
:101CF0002750D9262850DA2220C0E1FF21C0E2FF78
:101D0000E750256E050E266ED8902536262EFCD778
:101D10002550DF6E20EE03F02750D9262850DA2216
:101D200020C0E1FF21C0E2FFE750256ED8902532A8
:101D3000D8902532D8902530DF6E204A212A20C045
:101D4000D9FF21C0DAFFDF50256E030E251620EEE5
:101D500002F02750D9262850DA222550DF1220C061
:101D6000D9FF21C0DAFFDF50256ED8902532D890F8
:101D70002532D89025321C0E251620EE02F0275071
:101D8000D9262850DA222550DF12204A212A20C0E5
:101D9000D9FF21C0DAFF10EE01F02750E1262850CC
:101DA000E222DFCFE7FF204A212A20C0D9FF21C04D
:101DB000DAFF27C0E1FF28C0E2FFDFCFE7FF120014
:101DC00092D00001CD6F010E00010001D06F000123
:101DD000CD51CBC020F0CCC021F00001CD6F000E62
:101DE000226E0001CD510001CE6F000E236E000166
:101DF000CE510001CF6F000E246E0001CF5145EC93
:101E00000AF089D00001CD6F020E00010001D06FF1
:101E10000001CD51CBC020F0CCC021F00001CD6F2E
:101E2000000E226E0001CD510001CE6F000E236E18
:101E30000001CE510001CF6F000E246E0001CF5182
:101E400045EC0AF068D00001CD6F030E00010001DF
:101E5000D06F0001CD51CBC020F0CCC021F00001EB
:101E6000CD6F000E226E0001CD510001CE6F000E2D
:101E7000236E0001CE510001CF6F000E246E0001D1
:101E8000CF5145EC0AF047D0C9C02BF0CAC02CF0A6
:101E9000CBC02DF0CCC02EF0E1EC13F020D0C9C0A7
:101EA0002BF0CAC02CF0CBC02DF0CCC02EF08BECA8
:101EB00013F015D0C9C02BF0CAC02CF0CBC02DF048
:101EC000CCC02EF035EC13F00AD0C9C02BF0CAC03C
:101ED0002CF0CBC02DF0CCC02EF0DFEC12F00001C6
:101EE0000001D06F18D000010001C851010AD8B418
:101EF00068D7030AD8B486D7010AD8B4A4D7070A8A
:101F0000D8B4C2D7010AD8B4CAD7030AD8B4D2D732
:101F1000010AD8B4DAD700010001D0511200000E36
:101F20002A6E220E296E26663AD029C0D9FF2AC011
:101F3000DAFFDF50276ED8902732D8902732D8901A
:101F4000273020C0D9FF21C0DAFFDF6E20EE01F07C
:101F50002950D9262A50DA22DF50276E050E286E26
:101F6000D8902736282EFCD720C0D9FF21C0DAFF11
:101F70002750DF12204A212A29C0D9FF2AC0DAFFC0
:101F8000DF50276E050E286ED8902736282EFCD7F6
:101F9000275020C0D9FF21C0DAFFDF6E6ED020EEBF
:101FA00002F02950D9262A50DA22DF50276E050E7A
:101FB000286ED8902732282EFCD7275020C0D9FF72
:101FC00021C0DAFFDF6E20EE03F02950D9262A5017
:101FD000DA22DF50276ED8902736D8902736D8904F
:101FE000273620C0D9FF21C0DAFF2750DF12204A50
:101FF000212A20EE02F02950D9262A50DA22DF5079
:10200000276ED8902736D8902736D8902734E00B03
:1020100020C0D9FF21C0DAFFDF6E20C0D9FF21C068
:10202000DAFF000EDB8620EE02F02950D9262A5076
:10203000DA22DF50276E030E271620C0D9FF21C0F9
:10204000DAFF2750DF12204A212A20EE01F0295022
:10205000D9262A50DA2220C0E1FF21C0E2FFDFCFDB
:10206000E7FF204A212A29C0D9FF2AC0DAFF20C071
:10207000E1FF21C0E2FFDFCFE7FF12002750030A94
:10208000D8A448D00B0EF66E0D0EF76E0800F55072
:102090003D6203D026C03DF039D03DC029F010D0BC
:1020A0002950110D100EF326000EF4220001630ECC
:1020B000F324D96E0001000EF420DA6EDF50296E91
:1020C0002950110D100EF326000EF4220001630EAC
:1020D000F324D96E0001000EF420DA6E0B0EF66EBA
:1020E0000D0EF76E0800F550DF62DAD72950110D9A
:1020F000100EF326000EF4220001630EF324D96EB5
:102100000001000EF420DA6E26C0DFFF26C025F0A5
:1021100087EC17F02750040AD8A404D026C025F075
:102120007EEC17F02704D8A434D02650110D0001FE
:10213000630EF324D96E0001000EF420DA6E040E53
:10214000DF6227D03DC028F03D50110D100EF32660
:10215000000EF4220001630EF324D96E0001000E7C
:10216000F420DA6EDF503D6E0B0EF66E0D0EF76E3C
:102170002850110D100EF326000EF4220001630EFC
:10218000F324D96E0001000EF420DA6E0800F5CFBA
:10219000DFFF2650110D0001630EF324D96E0001FC
:1021A000000EF420DA6E27C0DFFF2650110D0F0E4F
:1021B000F326000EF4220001630EF324D96E000111
:1021C000000EF420DA6E000EDF6E120069D00101FD
:1021D000010E226E0101580E216EB3EC15F05BD09A
:1021E0000E0EF66E0D0EF76E0800F5CF2AF03FECDE
:1021F00017F02A18D8A464D04ED03FEC17F03B6EED
:1022000006D02A6E010E49D02A6E040E46D03B50ED
:10221000000AD8B455D0030AD8B4F3D7F5D73FECA9
:1022200017F0EFD7ABEC17F02B6E0B0EF66E0D0E12
:10223000F76E0800F5CF2AF02B502A18D8B42BD00F
:102240002BC020F05DEC17F0040AD8A408D02BC0F6
:1022500026F02A6E010E276E2A503EEC10F0ABECF1
:1022600017F02B6E0B0EF66E0D0EF76E0800F5CF05
:102270002AF02B502A18D8B40ED02BC026F02A6E84
:10228000040E276E2A503EEC10F005D03B50610A38
:10229000D8B4C8D7030A2A6E020E3A6E2A5010D05C
:1022A0003A50000AD8B493D7010AD8B499D7030A90
:1022B000D8B4A3D7010AD8B4B2D7070AD8B4E6D79E
:1022C0001200000E236E20EE04F02050D92621507B
:1022D000DA22DF50226E3650225CD8A058D020EE91
:1022E00004F02050D9262150DA22DF5020EE36F0BB
:1022F000DF624FD020EE03F02050D9262150DA22A1
:10230000DF50226E3550225CD8A041D020EE03F081
:102310002050D9262150DA22DF5020EE35F0DF623E
:1023200038D020EE02F02050D9262150DA22DF509A
:10233000226E3450225CD8A02AD020EE02F0205029
:10234000D9262150DA22DF5020EE34F0DF6221D08E
:1023500020EE01F02050D9262150DA22DF50226EE3
:102360003350225CD8A013D020EE01F02050D926A3
:102370002150DA22DF5020EE33F0DF620AD020C095
:10238000D9FF21C0DAFFDF50325CD8A002D0010EA5
:10239000236E23501200216E800E206E215074ECAB
:1023A00017F0430E706E7168070E726E200E736E1A
:1023B000779E779C000E606E000E0F010F01506F2C
:1023C000000E0F010F01006F000E0F010F01016FD2
:1023D000000E0F010F01046F000E0F010F01056FBA
:1023E000000E0F010F01086F000E0F010F01096FA2
:1023F000000E0F010F010C6F000E0F010F010D6F8A
:10240000000E0F010F01106F000E0F010F01116F71
:10241000000E0F010F01146F000E0F010F01156F59
:10242000000E0F010F01186F000E0F010F01196F41
:102430000F010F011997000E0F010F011C6F000E05
:102440000F010F011D6F0F010F011D97216E000E6F
:10245000206E215074EC17F012002BC020F030ECED
:1024600017F020C02FF021C030F044D02BC020F056
:10247000DEEC15F00009D8B44AD02BC026F02C6E43
:10248000020E276E2C503EEC10F02FC020F030C012
:1024900021F02C6E000E226E2C502D6E010E236E3C
:1024A0002D502E6E000E246E2E5045EC0AF02FD0CB
:1024B0002BC020F0DEEC15F00009D8B412D02FC0EC
:1024C00020F030C021F061EC11F00009D8B41FD029
:1024D0002BC026F02C6E030E276E2C503EEC10F015
:1024E00016D02BC026F02C6E010E276E2C503EEC21
:1024F00010F00DD02BC020F05DEC17F0010AD8B41D
:10250000B5D7030AD8B4D4D7010AD8A4070A120051
:1025100043414E204D6573736167652053656E744A
:102520003A204F4646200D0A0043414E204D657328
:10253000736167652053656E743A204F4E200D0A13
:102540000043414E20436F6D6D616E643A204F46EB
:1025500046200D0A0043414E20436F6D6D616E644D
:102560003A204F4E200D0A0048656C6C6F20576F63
:10257000726C642E204461746120436F6D6D732012
:10258000496E69742E2E2E2E20446F6E650A00430C
:102590007573746F6D6572204265696E672053654F
:1025A000727665643A200D0A00437573746F6D6529
:1025B0007220576174696E673A200D0A00002F6E11
:1025C000000E00010001C76F2F503DD02F6E020E8C
:1025D00000010001C76F2F502DC020F02EC021F048
:1025E0002F6E000E226E2F50306E000E236E305074
:1025F000316E000E246E315045EC0AF02BC0D9FF2D
:102600002CC0DAFF020E1DD02F6E030E0001000158
:10261000C76F2F502DC020F02EC021F02F6E000E5E
:10262000226E2F50306E000E236E3050316E000E31
:10263000246E315045EC0AF02BC0D9FF2CC0DAFFD4
:10264000010EDF6E0ED02BC0D9FF2CC0DAFFDF5099
:10265000000AD8B4BBD7010AD8B4B8D7030AD8B493
:10266000D3D700010001C75112002F6E000E0001E8
:102670000001C76F2F503DD02F6E030E00010001E7
:10268000C76F2F502DC020F02EC021F02F6E000EEE
:10269000226E2F50306E000E236E3050316E0A0EB7
:1026A000246E315045EC0AF02BC0D9FF2CC0DAFF64
:1026B000020E1DD02F6E010E00010001C76F2F50BA
:1026C0002DC020F02EC021F02F6E000E226E2F5054
:1026D000306E000E236E3050316E320E246E31504B
:1026E00045EC0AF02BC0D9FF2CC0DAFF010EDF6EDB
:1026F0000ED02BC0D9FF2CC0DAFFDF50000AD8B4AF
:10270000BBD7010AD8B4B8D7030AD8B4D3D70001CD
:102710000001C75112002F6E000E00010001C76FAB
:102720002F503DD02F6E020E00010001C76F2F50B9
:102730002DC020F02EC021F02F6E000E226E2F50E3
:10274000306E000E236E3050316E010E246E31500B
:1027500045EC0AF02BC0D9FF2CC0DAFF020E1DD0C9
:102760002F6E010E00010001C76F2F502DC020F009
:102770002EC021F02F6E000E226E2F50306E000EF4
:10278000236E3050316E020E246E315045EC0AF04B
:102790002BC0D9FF2CC0DAFF010EDF6E0ED02BC08C
:1027A000D9FF2CC0DAFFDF50000AD8B4BBD7010A2A
:1027B000D8B4B8D7030AD8B4D3D700010001C751A1
:1027C00012002F6E000E00010001C76F2F503DD088
:1027D0002F6E020E00010001C76F2F502DC020F098
:1027E0002EC021F02F6E000E226E2F50306E020E82
:1027F000236E3050316E000E246E315045EC0AF0DD
:102800002BC0D9FF2CC0DAFF020E1DD02F6E030E95
:1028100000010001C76F2F502DC020F02EC021F005
:102820002F6E000E226E2F50306E020E236E30502F
:10283000316E000E246E315045EC0AF02BC0D9FFEA
:102840002CC0DAFF010EDF6E0ED02BC0D9FF2CC0DA
:10285000DAFFDF50000AD8B4BBD7010AD8B4B8D722
:10286000030AD8B4D3D700010001C7511200D1C068
:1028700020F021EC17F020C0D2F021C0D3F0D1C05D
:1028800020F012EC17F020C0D4F021C0D5F0D2C057
:1028900020F0D3C021F061EC11F00009D8A406D0DB
:1028A00000010001D551D411D8A42CD0D1C020F002
:1028B000C0EC14F000010001D66F0FD0D1C020F0A1
:1028C0008DEC16F01FD0D1C020F06CEC16F01AD0B1
:1028D000D1C020F04BEC16F015D0D6C0C8F0D4C053
:1028E000C9F0D5C0CAF0D2C0CBF0D3C0CCF0E0EC78
:1028F0000EF0010AD8B4E2D7030AD8B4E4D7010A2B
:10290000D8B4E6D71200F2A43AD0322A110EF66EED
:102910000D0EF76E0800F550325CD8A029D0332A8E
:10292000000E326E120EF66E0D0EF76E0800F550A8
:10293000335CD8A01DD0342A000E336E120EF66E12
:102940000D0EF76E0800F550345CD8A011D0352A72
:10295000000E346E100EF66E0D0EF76E0800F55078
:10296000355CD8A005D0000E356E3628D8A4362A9E
:10297000000E216E000E206E90EC17F0F294120003
:10298000010E216E1DD02050110D0B0E0BD02050CA
:10299000110D0C0E07D02050110D0D0E03D020503C
:1029A000110D0E0EF326000EF4220001630EF32427
:1029B000D96E0001000EF420DA6EDF50216E17D0C0
:1029C0002050110D0001630EF324D96E0001000E9A
:1029D000F420DA6EDF50010AD8B4D5D7030AD8B490
:1029E000D6D7010AD8B4D7D7070AD8B4D8D7215038
:1029F00012000600EACF04F0E1CF05F0E2CF06F0C6
:102A0000D9CF07F0DACF08F0F3CF09F0F4CF0AF00E
:102A1000F6CF0BF0F7CF0CF0F8CF0DF0F5CF0EF0AE
:102A20000EC0F5FF0DC0F8FF0CC0F7FF0BC0F6FF9E
:102A30000AC0F4FF09C0F3FF08C0DAFF07C0D9FFDE
:102A400006C0E2FF05C0E1FF04C0EAFF03C0E9FFE2
:102A500002C0FBFF01C0FAFF1100000EAC6E000EB9
:102A6000AB6E20B0AC8820A202D0AC8CAB8C20B472
:102A7000AC8E20A602D0AB8801D0AB8A20B8AC8443
:102A80009E9820BAAB8620AC02D09D8A01D09D9A38
:102A90009E9A20AE02D09D8801D09D9821C0AFFFA4
:102AA0002250B06EAC8AAB8E949C948EACB8ACBE07
:102AB00001D0948C120000EE60F0670EEE6AE8061A
:102AC000FDE100EE32F00D0EEE6AE806FDE1100EBB
:102AD000F66E250EF76E000EF86E01EE00F010EEA9
:102AE000ADF00900F5CFEEFFE550E150FAE15A0EE6
:102AF000F66E2F0EF76E000EF86E0900F5CF3FF060
:102B00000900F5CF40F0000EF86E0001A1EF17F0BC
:102B1000000E276E000E266E23502210D8B41ED051
:102B2000246E010E256E245004D0D8902236233610
:102B3000252A23AEFAD7D890263627362250205C95
:102B400023502158D8A005D02250205E2350215A6E
:102B50002680D89023322232252EEDD726C020F0B1
:102B600027C021F01200ACA2FED72150F66EE96E0C
:102B70000C0EEA6E2250EA6403D0EA6EEF5003D0E6
:102B8000F76E0800F550206E99EC17F02150236E77
:102B90002250246E214A222A2350F66EE96E0C0E32
:102BA000EA6E2450EA6403D0EA6EEF5003D0F76E69
:102BB0000800F5500009D8B41200D5D7216E000ED8
:102BC000226E215010D080B01ED008D080B61BD00D
:102BD00005D080BE18D002D081B815D0216E010E6C
:102BE000226E215010D02050000AD8B4ECD7010A30
:102BF000D8B4ECD7030AD8B4ECD7010AD8B403D0C0
:102C0000070AD8B4E9D7225012007E0ED36E0F0EF9
:102C1000C16E890E926E080E936E020E946E000EB7
:102C2000806E000E816E000E826EF28E236ED50EC7
:102C3000206E235003EC17F0F29A236E2C0E206EB8
:102C40002350000E226E0C0E216E2DEC15F012009A
:102C50002B502A10D8B41AD02C6E010E2D6E2C5089
:102C600004D0D8902A362B362D2A2BAEFAD72A50EC
:102C7000285C2B502958D8A004D02A50285E2B500D
:102C8000295AD8902B322A322D2EF1D728C028F07D
:102C900029C029F012000FD0808280941CD0808837
:102CA000809A19D0808C829016D08284829613D01C
:102CB0008298828A10D02050000AD8B4EDD7010A39
:102CC000D8B4EDD7030AD8B4EDD7010AD8B4EDD7FC
:102CD000070AD8B4EDD712000FD0809280841CD0A0
:102CE0008098808A19D0809C828016D082948286B7
:102CF00013D08288829A10D02050000AD8B4EDD721
:102D0000010AD8B4EDD7030AD8B4EDD7010AD8B474
:102D1000EDD7070AD8B4EDD712000FD08092809477
:102D20001CD08098809A19D0809C829016D0829472
:102D3000829613D08298829A10D02050000AD8B47C
:102D4000EDD7010AD8B4EDD7030AD8B4EDD7010AFC
:102D5000D8B4EDD7070AD8B4EDD7120016D069EC75
:102D600017F064EC0BF00001FC6F020E406E0001E6
:102D7000FC5112D083EC14F0A6EC17F0E9EC16F03D
:102D800083EC14F0CDEC16F007D04050010AD8B413
:102D9000E6D7030AD8B4EED712000001D76F000EB1
:102DA00000010001D86F0001D7510B0EF66E0D0E19
:102DB000F76E0800F55000010001D85DD8B008D0CA
:102DC000D8C0D1F037EC14F000010001D82BEDD7BA
:102DD0001200316E000E00010001C76F31500B0E62
:102DE000F66E0D0EF76E0800F55000010001C75D8C
:102DF000D8B008D0C7C02BF02DEC12F000010001B4
:102E0000C72BEDD7120020507F0BD56E000ED76E6A
:102E1000000ED66EF29420AE02D0F28A01D0F29A61
:102E2000D58E12002050110D0F0EF326000EF42245
:102E30000001630EF324206E0001000EF420216EC9
:102E400012002050110D060EF326000EF422000190
:102E5000630EF324206E0001000EF420216E120098
:102E60002050110D010EF326000EF4220001630E16
:102E7000F324206E0001000EF420216E12000C0ECF
:102E8000F66E0D0EF76E0800F5CF21F09EBAACA2DB
:102E900003D04EEC17F0216E21501200F20E3C16BA
:102EA000ABAC03D03C90ABB03C80ABB43C84ABB299
:102EB0003C86AECF20F0205012002050110D0001B2
:102EC000630EF324D96E0001000EF420DA6EDF5099
:102ED0001200000E366E000E356E000E326E000EC1
:102EE000346E000E336E12001F0E6F1620506F12DC
:102EF0006F50E00B2018D8B41200FAD70101010E70
:102F0000226E01017F0E216EB3EC15F0120001015B
:102F1000010E226E0101990E216EB3EC15F0120024
:102F200020C022F021C023F023C0D7FF22C0D6FF4B
:102F30001200ACAC03D0AC903CB2AC8020C0ADFF72
:102F4000120005EC16F0AEEC16F0FDD788EC08F098
:0C2F5000E6EC10F012003D5012000101F0
:020000040020DA
:08000000FFFFFFFFFFFFFFFF00
:020000040030CA
:0E000000FF081F1EFF0080FF0FC00FE00F4023
:00000001FF
