:0400000051EF00F0CC
:10000800FACF12F0FBCF13F0E9CF14F072ED08F03D
:10001800D8CF01F0E8CF02F0E0CF03F0FACF04F038
:10002800FBCF05F0E9CF06F0EACF07F0E1CF08F003
:10003800E2CF09F0D9CF0AF0DACF0BF0F3CF0CF00A
:10004800F4CF0DF0F6CF0EF0F7CF0FF0F8CF10F099
:10005800F5CF11F011C0F5FF10C0F8FF0FC0F7FF82
:100068000EC0F6FF0DC0F4FF0CC0F3FF0BC0DAFFA3
:100078000AC0D9FF09C0E2FF08C0E1FF07C0EAFFD4
:1000880006C0E9FF05C0FBFF04C0FAFF03C0E0FF9C
:0E00980002C0E8FF01C0D8FF1000D9EF09F048
:100D00000500020005000A00000082D0C9C020F0E2
:100D1000CAC021F0FEEC07F00009D8B401D001D020
:100D20008AD0C9C026F0CAC027F0346E010E286EE2
:100D30003450ADEC09F0C9C026F0CAC027F078ECF9
:100D400009F026C028F027C029F0000E2B6E000EF7
:100D50002A6E000E2D6E000E2C6E000E2F6E010EF0
:100D60002E6E000E316E000E306E3AEC08F063D03D
:100D700062D0C9C020F0CAC021F0FEEC07F0000923
:100D8000D8A401D001D017D0C9C026F0CAC027F01E
:100D9000346E000E286E3450ADEC09F0C9C026F058
:100DA000CAC027F078EC09F026C028F027C029F047
:100DB000C6EC09F040D0C9C026F0CAC027F078ECD4
:100DC00009F026C028F027C029F010EC0AF000092D
:100DD000D8B401D001D02FD0C9C026F0CAC027F0A6
:100DE000346E020E286E3450ADEC09F0C9C026F006
:100DF000CAC027F078EC09F026C028F027C029F0F7
:100E0000C6EC09F018D017D016D015D014D013D0D6
:100E1000C9C026F0CAC027F094EC09F0000AD8B483
:100E200075D7010AD8B4A5D7030AD8B404D0010AEB
:100E3000D8B401D000D012000AEC09F0000E276EE1
:100E4000000E266EA6EC08F026C030F027C031F068
:100E5000000E336E000E326E000EF66E0D0EF76E43
:100E60000900F5CF2DF00900F5CF2EF03350800AA0
:100E70002F6E2D50325C2E50800A2F58D8A001D0F2
:100E800001D002D04CD04BD032C020F033C021F082
:100E9000000E236E070E226E59EC09F0030E202679
:100EA000000E21220001600E2024D96E0001000EE8
:100EB0002120DA6E30C0DEFF31C0DDFF32C020F00D
:100EC00033C021F0000E236E070E226E59EC09F09C
:100ED000020E2026000E21220001600E2024D96E71
:100EE0000001000E2120DA6E000EDF6E324A332A36
:100EF000000EF66E0D0EF76E0900F5CF2DF009000D
:100F0000F5CF2EF03350800A2F6E2D50325C2E50CC
:100F1000800A2F58D8A001D001D0B6D700D0D9EC84
:100F200008F020C065F021C066F0D9EC08F020C0C0
:100F30006CF021C06DF0D9EC08F020C073F021C036
:100F400074F0D9EC08F020C07AF021C07BF0D9EC25
:100F500008F020C081F021C082F01200000E0001D4
:100F60000001CF6F000E0001CE6F000EF66E0D0E69
:100F7000F76E0900F5CFCBF00900F5CFCCF00001FA
:100F80000001CF51800A0001CD6FCB51000100015B
:100F9000CE5D0001CC51800A0001CD59D8A001D00E
:100FA00001D002D02AD029D0CEC0C9F0CFC0CAF01B
:100FB000000185EC06F000010001CE4BCF2B000EA6
:100FC000F66E0D0EF76E0900F5CFCBF00900F5CFE8
:100FD000CCF000010001CF51800A0001CD6FCB5150
:100FE00000010001CE5D0001CC51800A0001CD5905
:100FF000D8A001D001D0D8D700D01200226E000EA8
:10100000246E22501AD0000E80B0010E246E2FD014
:10101000000E80B6010E246E2AD0000E80BE010E96
:10102000246E25D0000E82B2010E246E20D0000E58
:1010300081B8010E246E1BD01AD020C022F021C02E
:1010400023F02350000AD8B401D011D02250000A56
:10105000D8B4D9D7010AD8B4DBD7030AD8B4DDD7BE
:10106000010AD8B4DFD7070AD8B4E1D700D024509A
:1010700000D0120030C032F031C033F0D8902E349E
:10108000326E2F34336E2CC020F02DC021F0000EB4
:10109000236E780E226E59EC09F020C032F021C088
:1010A00033F02AC020F02BC021F01C0E236E200E3E
:1010B000226E59EC09F020C032F021C033F020EE4E
:1010C00002F02850D9262950DA2232C0DEFF33C080
:1010D000DDFF28C0D9FF29C0DAFF000EDE6E000E4A
:1010E000DD6E12000600EACF15F0E1CF16F0E2CF78
:1010F00017F0D9CF18F0DACF19F0F3CF1AF0F4CFF8
:101100001BF0F6CF1CF0F7CF1DF0F8CF1EF0F5CF97
:101110001FF01FC0F5FF1EC0F8FF1DC0F7FF1CC069
:10112000F6FF1BC0F4FF1AC0F3FF19C0DAFF18C0A6
:10113000D9FF17C0E2FF16C0E1FF15C0EAFF14C0D7
:10114000E9FF13C0FBFF12C0FAFF110027BE01D058
:1011500001D029D0040EF66E0D0EF76E0900F5CF02
:1011600028F00900F5CF29F02950800A2A6E265070
:10117000285C2750800A2A58D8A001D001D013D06B
:1011800026C020F027C021F0000E236E060E226E2E
:1011900059EC09F00001AB0E20242B6E0001000E6B
:1011A00021202C6E00D02BC026F02CC027F000D0C0
:1011B0001200060EF66E0D0EF76E0900F5CF22F046
:1011C0000900F5CF23F03650800A246E2250355C9A
:1011D0002350800A2458D8B001D001D015D035C092
:1011E00022F036C023F0D89022362336D89022360B
:1011F00023360001830E2224256E0001000E2320D9
:10120000266E354A362A00D025C020F026C021F0AF
:1012100000D01200206E010E3D6E2050000E3C6E7C
:101220000A0E3B6E206E020E406E2050000E3F6E86
:101230000A0E3E6E000E00010001AC6F3B0E000175
:10124000AB6F020EF66E0D0EF76E09000001F5CFC2
:10125000ADF00A000001F5CFAEF0000E0001000174
:10126000B06F000E0001AF6F12000FD01CEC07F042
:10127000000E386E010E376E1BD01BEC0AF0AEEC80
:1012800007F01CEC0AF014D013D037C0D0F038C0EF
:10129000D1F00001D151000AD8B401D009D0000129
:1012A000D051000AD8B4E2D7010AD8B4E6D700D0AA
:1012B0001200000E256E000E246E00D020A001D07A
:1012C00001D005D0225024262350252200D0D890CA
:1012D00022362336D8902132203221502010D8A433
:1012E00001D001D0EBD724C020F025C021F012009E
:1012F00026C020F027C021F0000E236E070E226EBC
:1013000059EC09F0050E2026000E21220001600E86
:101310002024D96E0001000E2120DA6EDECF26F0E7
:10132000DDCF27F000D0120026C020F027C021F02A
:10133000000E236E070E226E59EC09F0020E2026D5
:10134000000E21220001600E2024D96E0001000E43
:101350002120DA6EDF5000D0120026C020F027C016
:1013600021F0000E236E070E226E59EC09F0020EDA
:101370002026000E21220001600E2024D96E0001DB
:10138000000E2120DA6E28C0DFFF120020EE02F0EE
:101390002850D9262950DA22000EDE6E000EDD6EAE
:1013A00028C0D9FF29C0DAFF000EDE6E000EDD6E08
:1013B000120000EE60F0690EEE6AE806FDE100EE54
:1013C00035F00C0EEE6AE806FDE1000EF86E000145
:1013D000FBEF09F020507F0BD56E000ED76E000E8C
:1013E000D66EF29420AE01D001D002D0F28A01D0A4
:1013F000F29AD58E120017EC0AF008EC0AF01AECFB
:101400000AF000D035EC09F0FDD7FCD751EF00F021
:10141000216ED70E206E2150EAEC09F0F28E1200F8
:1014200028C0D9FF29C0DAFFDF5000D012007E0E9D
:0A143000D36E120012001200120029
:020000040020DA
:08000000FFFFFFFFFFFFFFFF00
:020000040030CA
:0E000000FF081F1EFF0080FF0FC00FE00F4023
:00000001FF
